:020000040000FA
:040000000000BCD070
:04000800000008D01C
:08001800000009D0F2B443EF2F
:1000200000F0CD90D58E9EB043EF00F011009EBA47
:100030001BEF00F010005DB00DD05DB210D05DB4CC
:1000400011D05DB612D05DB813D05DBA14D05DBCCE
:1000500015D0FFD7AE50FF08D8A413D011D0AE50A2
:10006000576E0ED0AE50586E0BD0AE50596E08D0B1
:10007000AE505A6E05D0AE505B6E02D0AE505C6E84
:100080005D469E9A100048B2A6EF00F01EEC03F009
:10009000480ECF6EA00ECE6ECD8067EC02F0FF0E44
:1000A000506E00D000D000D000D000D000D0502E34
:1000B000F8D700D000D000D000D000D000D000D0C1
:1000C00000D000D000D000D000D000D000D000D0B0
:1000D00000D000D000D000D000D000D000D000D0A0
:1000E00000D000D000D000D000D000D000D000D090
:1000F00000D000D000D000D000D000D000D000D080
:1001000000D000D000D000D000D000D000D000D06F
:1001100000D000D000D000EE18F011EE18F021EE63
:1001200000F0406A416AEF503D6E41503D5E19E07B
:10013000EF50416E010E3C6E486800000000000068
:10014000000000000000000000000000FF0ED76E5D
:10015000E10ED66E00003C2A3D503C640CD0486A4B
:100160000000D7EC02F0DE504026E92A0000170E0E
:100170004064D9D7D59E9E90F2941100000E926EE5
:10018000000E936E800E946E000E956E000E966EAD
:10019000000E806E000E816E000E826E000E836E69
:1001A000000E846E800ED06E240EF26E8E0EF16EF6
:1001B000900ED56E000ECA6EA00ECD6E9D809F80F3
:1001C000010E476E486A3C6A800E3D6E010E5D6E00
:1001D0005A6E400EAF6EAC98AB8EAB9CAB889D8ACE
:1001E0009F9A210EAC6E9D8A9F98010E006E020EA2
:1001F000016E030E026E040E036E050E046E060EF3
:10020000056E070E066E080E076E090E086E0A0EC2
:10021000096E0B0E0A6E0C0E0B6E0D0E0C6E0E0E92
:100220000D6E0F0E0E6E100E0F6E110E106E120E62
:10023000116E130E126E140E136E800E146E810E5C
:10024000156EFD0E166EFE0E176E0101010E006F8B
:10025000010E016F010E026F010E036F010E046F9C
:10026000010E056F010E066F010E076F010E086F7C
:10027000010E096F010E0A6F010E0B6F010E0C6F5C
:10028000010E0D6F010E0E6F010E0F6F010E106F3C
:10029000010E116F010E126F010E136F010E146F1C
:1002A000010E156F010E166F010E176F010E186FFC
:1002B000000E196F000E1A6F020E1B6F000E1C6FDE
:1002C000000E1D6F040E1E6F000E1F6F000E206FBC
:1002D000080E216F000E226F000E236F100E246F88
:1002E000000E256F000E266F200E276F000E286F60
:1002F000000E296F400E2A6F000E2B6F000E2C6F20
:10030000800E2D6F000E2E6F000E2F6F000E306FBF
:10031000010E316F000E326F000E336F020E346F1C
:10032000000E356F000E366F040E376F000E386FFB
:10033000000E396F080E3A6F000E3B6F000E3C6FD7
:10034000100E3D6F000E3E6F000E3F6F200E406F8F
:10035000000E416F000E426F400E436F000E446F5F
:10036000000E456F800E466F000E476F000E486FFF
:10037000000E496F010E4A6F000E4B6F000E4C6F5E
:10038000020E4D6F000E4E6F000E4F6F040E506F39
:10039000000E516F000E526F080E536F000E546F17
:1003A000000E556F100E566F000E576F000E586FEF
:1003B000200E596F000E5A6F000E5B6F400E5C6F7F
:1003C000000E5D6F000E5E6F800E5F6F00010A0E03
:1003D000AD6E9EA8E9EF01F04F0EAD6E9EA8EEEF58
:1003E00001F04F0EAD6E9EA8F3EF01F04B0EAD6E17
:1003F0009EA8F8EF01F04B0EAD6E9EA8FDEF01F048
:100400000A0EAD6E9EA802EF02F0000E4EEC02F056
:10041000F28EF28C5DAEFED7010E5D6EFF0E5A625B
:1004200001D05A06FF0E5B6201D05B06FF0E5C62D4
:1004300001D05C065A5057B0106E57B2116E57B4C7
:10044000126E57B6136E57B8146E57BA156E57BC66
:10045000166E57BE176E5B5058B0086E58B2096ED4
:1004600058B40A6E58B60B6E58B80C6E58BA0D6E6A
:1004700058BC0E6E58BE0F6E5C5059B0006E59B22B
:10048000016E59B4026E59B6036E59B8046E59BA6A
:10049000056E59BC066E59BE076EBCD7006E016E64
:1004A000026E036E046E056E066E076E086E096EB0
:1004B0000A6E0B6E0C6E0D6E0E6E0F6E106E116E60
:1004C000126E136E146E156E166E176E1200426A5F
:1004D000446A436A466A456AE86A0066010E421247
:1004E000E86A0166020E4212E86A0266040E4212CF
:1004F000E86A0366080E4212E86A0466100E4212A9
:10050000E86A0566010E4412E86A0666020E4412A5
:10051000E86A0766040E4412E86A0866010E431290
:10052000E86A0966020E4312E86A0A66040E43127C
:10053000E86A0B66080E4312E86A0C66100E431256
:10054000E86A0D66200E4312E86A0E66010E461236
:10055000E86A0F66020E4612E86A1066010E45123E
:10056000E86A1166020E4512E86A1266040E451228
:10057000E86A1366080E4512E86A1466100E451202
:10058000E86A1566200E4512E86A1666400E4512A6
:10059000E86A1766800E45124250896E44508B6E91
:1005A00043508A6E46508D6E45508C6E12003D5001
:1005B00023E0E7503F0B8918426EE750E846E846D3
:1005C000E846070B8B18446EE4503F0B8A18436EC5
:1005D000E650E846E846030B8D18466EE6508C1848
:1005E000456E4250896E44508B6E43508A6E465021
:1005F0008D6E45508C6E1200E12AE12AE12A00003E
:1006000000000000000000000000000000000000EA
:1006100000000000000000000000000000000000DA
:1006200000000000000000000000000000000000CA
:1006300000000000000000000000120000EE18F0B2
:1006400011EE18F021EE00F0E9CF51F0E2CF53F0B7
:10065000E1CF52F0D9CF54F04A6A180E506E00EE36
:1006600000F010EE4DF049684D6A4E6A4F6A010E77
:10067000556E4C6E566A562A190E566021D0180EC9
:10068000505C03E0EF504A6013D0EF50496204D051
:100690004C50E712552A0CD0496001D009D0EF50D8
:1006A000496E4D6A4E6A4F6A010E556E4C50E71204
:1006B000D8904C36D8A002D04C36E12AE92ADBD7B4
:1006C00049504A6E51C0E9FF53C0E2FF52C0E1FFFA
:1006D00054C0D9FF49C0EEFF4DC0E6FF4EC0E6FF53
:1006E0004FC0E6FF55C0DEFFE9CF51F0E2CF53F037
:0E06F000E1CF52F0D9CF54F0502EB1D7120006
:020000040030CA
:02000200FDFE01
:080006007AFFFFFFFFFFFFFF7F
:00000001FF
